:020000020000FC
:0200000012C02C
:1000240031C004E00EBF0FE50DBF01E009BF0CE0D5
:1000340002BF05E003BF50E100E201BB0EE70ABBCB
:100044000FEF07BB02EC0FBD01E00EBD01E00BBDDD
:1000540006E30ABD10E018BB7FEF7894FFCF2BB501
:1000640018BB0AB50A5108F42A952BBD0ABD089598
:100074002BB518BB0AB53AE1030F08F423952BBD41
:100084000ABD08955A9579F450E11A3049F0139550
:10009400703019F00E94310006C00E943A0003C07B
:0C00A40070951127F4CF0CE002BF1895F6
:00000001FF
