:020000020000FC
:1000000000C004E00EBF0FE50DBF00E201BB0EE72C
:100010000ABB0FEF07BB02EC0FBD01E00EBD01E014
:100020000BBD0AE90ABD10E018BBC89B03C0CF9BFB
:1000300012C0FBCFC89901C0FDCF0E943B002BB579
:100040001A3041F0139518BB0AB50A5108F42A95E5
:100050002BBD0ABDEACFCF9901C0FDCF0E943B0066
:100060002BB51030B9F31A9518BB0AB53AE1030F56
:1000700078F72395EDCF3FEF3A9531F04FEF000041
:0A00800000004A95C9F3FBCF089574
:00000001FF
